{
  "_format": "hh-sol-artifact-1",
  "contractName": "Auction",
  "sourceName": "contracts/Auction.sol",
  "abi": [
    {
      "inputs": [],
      "stateMutability": "nonpayable",
      "type": "constructor"
    },
    {
      "anonymous": false,
      "inputs": [
        {
          "indexed": true,
          "internalType": "address",
          "name": "from",
          "type": "address"
        },
        {
          "indexed": true,
          "internalType": "uint256",
          "name": "tokenId",
          "type": "uint256"
        }
      ],
      "name": "AuctionStarted",
      "type": "event"
    },
    {
      "anonymous": false,
      "inputs": [
        {
          "indexed": true,
          "internalType": "address",
          "name": "from",
          "type": "address"
        },
        {
          "indexed": true,
          "internalType": "uint256",
          "name": "tokenId",
          "type": "uint256"
        },
        {
          "indexed": false,
          "internalType": "uint256",
          "name": "price",
          "type": "uint256"
        }
      ],
      "name": "BidPlaced",
      "type": "event"
    },
    {
      "anonymous": false,
      "inputs": [
        {
          "indexed": true,
          "internalType": "uint256",
          "name": "tokenId",
          "type": "uint256"
        }
      ],
      "name": "SaleEnded",
      "type": "event"
    },
    {
      "anonymous": false,
      "inputs": [
        {
          "indexed": true,
          "internalType": "address",
          "name": "soldTo",
          "type": "address"
        },
        {
          "indexed": true,
          "internalType": "uint256",
          "name": "tokenId",
          "type": "uint256"
        }
      ],
      "name": "SaleExecuted",
      "type": "event"
    },
    {
      "inputs": [
        {
          "internalType": "address",
          "name": "nftAddress",
          "type": "address"
        },
        {
          "internalType": "uint256",
          "name": "tokenId",
          "type": "uint256"
        }
      ],
      "name": "bid",
      "outputs": [],
      "stateMutability": "payable",
      "type": "function"
    },
    {
      "inputs": [
        {
          "internalType": "address",
          "name": "nftAddress",
          "type": "address"
        },
        {
          "internalType": "uint256",
          "name": "tokenId",
          "type": "uint256"
        }
      ],
      "name": "endSale",
      "outputs": [],
      "stateMutability": "nonpayable",
      "type": "function"
    },
    {
      "inputs": [
        {
          "internalType": "address",
          "name": "nftAddress",
          "type": "address"
        },
        {
          "internalType": "uint256",
          "name": "tokenId",
          "type": "uint256"
        }
      ],
      "name": "executeSale",
      "outputs": [],
      "stateMutability": "nonpayable",
      "type": "function"
    },
    {
      "inputs": [
        {
          "internalType": "address",
          "name": "operator",
          "type": "address"
        },
        {
          "internalType": "address",
          "name": "from",
          "type": "address"
        },
        {
          "internalType": "uint256",
          "name": "tokenId",
          "type": "uint256"
        },
        {
          "internalType": "bytes",
          "name": "data",
          "type": "bytes"
        }
      ],
      "name": "onERC721Received",
      "outputs": [
        {
          "internalType": "bytes4",
          "name": "",
          "type": "bytes4"
        }
      ],
      "stateMutability": "nonpayable",
      "type": "function"
    },
    {
      "inputs": [
        {
          "internalType": "address",
          "name": "nftAddress",
          "type": "address"
        },
        {
          "internalType": "uint256",
          "name": "tokenId",
          "type": "uint256"
        },
        {
          "internalType": "uint256",
          "name": "price",
          "type": "uint256"
        },
        {
          "internalType": "uint256",
          "name": "endTimestamp",
          "type": "uint256"
        }
      ],
      "name": "startAuction",
      "outputs": [],
      "stateMutability": "nonpayable",
      "type": "function"
    },
    {
      "inputs": [
        {
          "internalType": "address",
          "name": "",
          "type": "address"
        },
        {
          "internalType": "uint256",
          "name": "",
          "type": "uint256"
        }
      ],
      "name": "tokenToAuctionMap",
      "outputs": [
        {
          "internalType": "address",
          "name": "seller",
          "type": "address"
        },
        {
          "internalType": "uint256",
          "name": "minimumPrice",
          "type": "uint256"
        },
        {
          "internalType": "uint256",
          "name": "endTimestamp",
          "type": "uint256"
        },
        {
          "internalType": "uint256",
          "name": "maxBid",
          "type": "uint256"
        },
        {
          "internalType": "address",
          "name": "maxBidAddress",
          "type": "address"
        },
        {
          "internalType": "bool",
          "name": "active",
          "type": "bool"
        }
      ],
      "stateMutability": "view",
      "type": "function"
    }
  ],
  "bytecode": "0x608060405234801561001057600080fd5b50611db6806100206000396000f3fe6080604052600436106100555760003560e01c80630227b2a71461005a578063150b7a021461008357806359d667a5146100c05780637401b736146100dc5780637bed72321461011e5780639c16627314610147575b600080fd5b34801561006657600080fd5b50610081600480360381019061007c9190611496565b610170565b005b34801561008f57600080fd5b506100aa60048036038101906100a5919061141b565b6104cd565b6040516100b79190611a24565b60405180910390f35b6100da60048036038101906100d59190611496565b6104fa565b005b3480156100e857600080fd5b5061010360048036038101906100fe9190611496565b6108f3565b604051610115969594939291906119c3565b60405180910390f35b34801561012a57600080fd5b5061014560048036038101906101409190611496565b610989565b005b34801561015357600080fd5b5061016e600480360381019061016991906114d2565b610dba565b005b600073ffffffffffffffffffffffffffffffffffffffff163373ffffffffffffffffffffffffffffffffffffffff1614156101e0576040517f08c379a00000000000000000000000000000000000000000000000000000000081526004016101d790611a7f565b60405180910390fd5b60008060008473ffffffffffffffffffffffffffffffffffffffff1673ffffffffffffffffffffffffffffffffffffffff168152602001908152602001600020600083815260200190815260200160002090503373ffffffffffffffffffffffffffffffffffffffff168160000160009054906101000a900473ffffffffffffffffffffffffffffffffffffffff1673ffffffffffffffffffffffffffffffffffffffff16146102c5576040517f08c379a00000000000000000000000000000000000000000000000000000000081526004016102bc90611bbf565b60405180910390fd5b8060070160009054906101000a900460ff16610316576040517f08c379a000000000000000000000000000000000000000000000000000000000815260040161030d90611aff565b60405180910390fd5b60008160070160006101000a81548160ff0219169083151502179055508273ffffffffffffffffffffffffffffffffffffffff166342842e0e308360000160009054906101000a900473ffffffffffffffffffffffffffffffffffffffff16856040518463ffffffff1660e01b81526004016103949392919061198c565b600060405180830381600087803b1580156103ae57600080fd5b505af11580156103c2573d6000803e3d6000fd5b5050505060008160040160009054906101000a900473ffffffffffffffffffffffffffffffffffffffff1673ffffffffffffffffffffffffffffffffffffffff16826003015460405161041490611940565b60006040518083038185875af1925050503d8060008114610451576040519150601f19603f3d011682016040523d82523d6000602084013e610456565b606091505b505090508061049a576040517f08c379a000000000000000000000000000000000000000000000000000000000815260040161049190611b9f565b60405180910390fd5b827f94bb74a9473ae4063ec1e73dc3e35fd4b5abe9cc1e43ad0db84e5358559ccd5a60405160405180910390a250505050565b60007f150b7a023d4804d13e8c85fb27262cb750cf6ba9f9dd3bb30d90f482ceeb4b1f9050949350505050565b600073ffffffffffffffffffffffffffffffffffffffff163373ffffffffffffffffffffffffffffffffffffffff16141561056a576040517f08c379a000000000000000000000000000000000000000000000000000000000815260040161056190611b3f565b60405180910390fd5b60008060008473ffffffffffffffffffffffffffffffffffffffff1673ffffffffffffffffffffffffffffffffffffffff1681526020019081526020016000206000838152602001908152602001600020905042816002015411610603576040517f08c379a00000000000000000000000000000000000000000000000000000000081526004016105fa90611b1f565b60405180910390fd5b806001015434101561064a576040517f08c379a000000000000000000000000000000000000000000000000000000000815260040161064190611a5f565b60405180910390fd5b8060030154341015610691576040517f08c379a000000000000000000000000000000000000000000000000000000000815260040161068890611adf565b60405180910390fd5b8060070160009054906101000a900460ff166106e2576040517f08c379a00000000000000000000000000000000000000000000000000000000081526004016106d990611aff565b60405180910390fd5b60008160030154905060008260040160009054906101000a900473ffffffffffffffffffffffffffffffffffffffff169050348360030181905550338360040160006101000a81548173ffffffffffffffffffffffffffffffffffffffff021916908373ffffffffffffffffffffffffffffffffffffffff1602179055508260050134908060018154018082558091505060019003906000526020600020016000909190919091505582600601339080600181540180825580915050600190039060005260206000200160009091909190916101000a81548173ffffffffffffffffffffffffffffffffffffffff021916908373ffffffffffffffffffffffffffffffffffffffff16021790555060008173ffffffffffffffffffffffffffffffffffffffff168360405161081690611940565b60006040518083038185875af1925050503d8060008114610853576040519150601f19603f3d011682016040523d82523d6000602084013e610858565b606091505b505090508061089c576040517f08c379a000000000000000000000000000000000000000000000000000000000815260040161089390611a3f565b60405180910390fd5b843373ffffffffffffffffffffffffffffffffffffffff167fdf8644c0a4c21ed214ce69f395675b3a5fcd1039083daea5058898de40ea3149346040516108e39190611bff565b60405180910390a3505050505050565b6000602052816000526040600020602052806000526040600020600091509150508060000160009054906101000a900473ffffffffffffffffffffffffffffffffffffffff16908060010154908060020154908060030154908060040160009054906101000a900473ffffffffffffffffffffffffffffffffffffffff16908060070160009054906101000a900460ff16905086565b600073ffffffffffffffffffffffffffffffffffffffff163373ffffffffffffffffffffffffffffffffffffffff1614156109f9576040517f08c379a00000000000000000000000000000000000000000000000000000000081526004016109f090611a7f565b60405180910390fd5b60008060008473ffffffffffffffffffffffffffffffffffffffff1673ffffffffffffffffffffffffffffffffffffffff168152602001908152602001600020600083815260200190815260200160002090503373ffffffffffffffffffffffffffffffffffffffff168160000160009054906101000a900473ffffffffffffffffffffffffffffffffffffffff1673ffffffffffffffffffffffffffffffffffffffff1614610ade576040517f08c379a0000000000000000000000000000000000000000000000000000000008152600401610ad590611bbf565b60405180910390fd5b42816002015411610b24576040517f08c379a0000000000000000000000000000000000000000000000000000000008152600401610b1b90611abf565b60405180910390fd5b8060070160009054906101000a900460ff16610b75576040517f08c379a0000000000000000000000000000000000000000000000000000000008152600401610b6c90611aff565b60405180910390fd5b600073ffffffffffffffffffffffffffffffffffffffff168160040160009054906101000a900473ffffffffffffffffffffffffffffffffffffffff1673ffffffffffffffffffffffffffffffffffffffff161415610c09576040517f08c379a0000000000000000000000000000000000000000000000000000000008152600401610c0090611a9f565b60405180910390fd5b8273ffffffffffffffffffffffffffffffffffffffff166342842e0e308360040160009054906101000a900473ffffffffffffffffffffffffffffffffffffffff16856040518463ffffffff1660e01b8152600401610c6a9392919061198c565b600060405180830381600087803b158015610c8457600080fd5b505af1158015610c98573d6000803e3d6000fd5b5050505060008160000160009054906101000a900473ffffffffffffffffffffffffffffffffffffffff1673ffffffffffffffffffffffffffffffffffffffff168260030154604051610cea90611940565b60006040518083038185875af1925050503d8060008114610d27576040519150601f19603f3d011682016040523d82523d6000602084013e610d2c565b606091505b5050905080610d70576040517f08c379a0000000000000000000000000000000000000000000000000000000008152600401610d6790611b9f565b60405180910390fd5b823373ffffffffffffffffffffffffffffffffffffffff167f85adc35d532acb794cff170907a37aeeed58ec4952fbbfa4f442927be9c7649c60405160405180910390a350505050565b600073ffffffffffffffffffffffffffffffffffffffff163373ffffffffffffffffffffffffffffffffffffffff161415610e2a576040517f08c379a0000000000000000000000000000000000000000000000000000000008152600401610e2190611b5f565b60405180910390fd5b600073ffffffffffffffffffffffffffffffffffffffff168473ffffffffffffffffffffffffffffffffffffffff161415610e9a576040517f08c379a0000000000000000000000000000000000000000000000000000000008152600401610e9190611a7f565b60405180910390fd5b60008211610edd576040517f08c379a0000000000000000000000000000000000000000000000000000000008152600401610ed490611bdf565b60405180910390fd5b60008111610f20576040517f08c379a0000000000000000000000000000000000000000000000000000000008152600401610f1790611b7f565b60405180910390fd5b610f28611236565b6040518061010001604052803373ffffffffffffffffffffffffffffffffffffffff16815260200184815260200183815260200160008152602001600073ffffffffffffffffffffffffffffffffffffffff168152602001600067ffffffffffffffff81118015610f9857600080fd5b50604051908082528060200260200182016040528015610fc75781602001602082028036833780820191505090505b508152602001600067ffffffffffffffff81118015610fe557600080fd5b506040519080825280602002602001820160405280156110145781602001602082028036833780820191505090505b5081526020016001151581525090508473ffffffffffffffffffffffffffffffffffffffff166342842e0e3330876040518463ffffffff1660e01b815260040161106093929190611955565b600060405180830381600087803b15801561107a57600080fd5b505af115801561108e573d6000803e3d6000fd5b50505050806000808773ffffffffffffffffffffffffffffffffffffffff1673ffffffffffffffffffffffffffffffffffffffff168152602001908152602001600020600086815260200190815260200160002060008201518160000160006101000a81548173ffffffffffffffffffffffffffffffffffffffff021916908373ffffffffffffffffffffffffffffffffffffffff16021790555060208201518160010155604082015181600201556060820151816003015560808201518160040160006101000a81548173ffffffffffffffffffffffffffffffffffffffff021916908373ffffffffffffffffffffffffffffffffffffffff16021790555060a08201518160050190805190602001906111aa9291906112a9565b5060c08201518160060190805190602001906111c79291906112f6565b5060e08201518160070160006101000a81548160ff021916908315150217905550905050833373ffffffffffffffffffffffffffffffffffffffff167fc087c4cdb16906b5ff7016a6bf927618f24ff32eb1de5e86eeaeb08b94831a6860405160405180910390a35050505050565b604051806101000160405280600073ffffffffffffffffffffffffffffffffffffffff168152602001600081526020016000815260200160008152602001600073ffffffffffffffffffffffffffffffffffffffff16815260200160608152602001606081526020016000151581525090565b8280548282559060005260206000209081019282156112e5579160200282015b828111156112e45782518255916020019190600101906112c9565b5b5090506112f29190611380565b5090565b82805482825590600052602060002090810192821561136f579160200282015b8281111561136e5782518260006101000a81548173ffffffffffffffffffffffffffffffffffffffff021916908373ffffffffffffffffffffffffffffffffffffffff16021790555091602001919060010190611316565b5b50905061137c9190611380565b5090565b5b80821115611399576000816000905550600101611381565b5090565b6000813590506113ac81611d52565b92915050565b600082601f8301126113c357600080fd5b81356113d66113d182611c4b565b611c1a565b915080825260208301602083018583830111156113f257600080fd5b6113fd838284611d41565b50505092915050565b60008135905061141581611d69565b92915050565b6000806000806080858703121561143157600080fd5b600061143f8782880161139d565b94505060206114508782880161139d565b935050604061146187828801611406565b925050606085013567ffffffffffffffff81111561147e57600080fd5b61148a878288016113b2565b91505092959194509250565b600080604083850312156114a957600080fd5b60006114b78582860161139d565b92505060206114c885828601611406565b9150509250929050565b600080600080608085870312156114e857600080fd5b60006114f68782880161139d565b945050602061150787828801611406565b935050604061151887828801611406565b925050606061152987828801611406565b91505092959194509250565b61153e81611d0b565b82525050565b61154d81611c97565b82525050565b61155c81611ca9565b82525050565b61156b81611cb5565b82525050565b600061157e601783611c86565b91507f4661696c656420746f2073656e64206261636b206574680000000000000000006000830152602082019050919050565b60006115be602083611c86565b91507f42696420646f65736e277420657863656564206d696e696d756d2070726963656000830152602082019050919050565b60006115fe600f83611c86565b91507f496e76616c6964206164647265737300000000000000000000000000000000006000830152602082019050919050565b600061163e601383611c86565b91507f4e6f74206269647320706c6163656420796574000000000000000000000000006000830152602082019050919050565b600061167e601183611c86565b91507f41756374696f6e2068617320656e6465640000000000000000000000000000006000830152602082019050919050565b60006116be602283611c86565b91507f42696420646f65736e2774206578636565642063757272656e74206d6178206260008301527f69640000000000000000000000000000000000000000000000000000000000006020830152604082019050919050565b6000611724601583611c86565b91507f41756374696f6e206973206e6f742061637469766500000000000000000000006000830152602082019050919050565b6000611764600f83611c86565b91507f41756374696f6e206973206f76657200000000000000000000000000000000006000830152602082019050919050565b60006117a4600e83611c86565b91507f496e76616c69642073656e6465720000000000000000000000000000000000006000830152602082019050919050565b60006117e4600e83611c86565b91507f496e76616c69642053656e6465720000000000000000000000000000000000006000830152602082019050919050565b6000611824601583611c86565b91507f496e76616c696420656e642074696d657374616d7000000000000000000000006000830152602082019050919050565b6000611864601683611c86565b91507f4661696c656420746f207472616e7366657220657468000000000000000000006000830152602082019050919050565b60006118a4600083611c7b565b9150600082019050919050565b60006118be600a83611c86565b91507f4e6f742073656c6c6572000000000000000000000000000000000000000000006000830152602082019050919050565b60006118fe601c83611c86565b91507f5072696365206d7573742062652067726561746572207468616e2030000000006000830152602082019050919050565b61193a81611d01565b82525050565b600061194b82611897565b9150819050919050565b600060608201905061196a6000830186611535565b6119776020830185611544565b6119846040830184611931565b949350505050565b60006060820190506119a16000830186611544565b6119ae6020830185611544565b6119bb6040830184611931565b949350505050565b600060c0820190506119d86000830189611544565b6119e56020830188611931565b6119f26040830187611931565b6119ff6060830186611931565b611a0c6080830185611544565b611a1960a0830184611553565b979650505050505050565b6000602082019050611a396000830184611562565b92915050565b60006020820190508181036000830152611a5881611571565b9050919050565b60006020820190508181036000830152611a78816115b1565b9050919050565b60006020820190508181036000830152611a98816115f1565b9050919050565b60006020820190508181036000830152611ab881611631565b9050919050565b60006020820190508181036000830152611ad881611671565b9050919050565b60006020820190508181036000830152611af8816116b1565b9050919050565b60006020820190508181036000830152611b1881611717565b9050919050565b60006020820190508181036000830152611b3881611757565b9050919050565b60006020820190508181036000830152611b5881611797565b9050919050565b60006020820190508181036000830152611b78816117d7565b9050919050565b60006020820190508181036000830152611b9881611817565b9050919050565b60006020820190508181036000830152611bb881611857565b9050919050565b60006020820190508181036000830152611bd8816118b1565b9050919050565b60006020820190508181036000830152611bf8816118f1565b9050919050565b6000602082019050611c146000830184611931565b92915050565b6000604051905081810181811067ffffffffffffffff82111715611c4157611c40611d50565b5b8060405250919050565b600067ffffffffffffffff821115611c6657611c65611d50565b5b601f19601f8301169050602081019050919050565b600081905092915050565b600082825260208201905092915050565b6000611ca282611ce1565b9050919050565b60008115159050919050565b60007fffffffff0000000000000000000000000000000000000000000000000000000082169050919050565b600073ffffffffffffffffffffffffffffffffffffffff82169050919050565b6000819050919050565b6000611d1682611d1d565b9050919050565b6000611d2882611d2f565b9050919050565b6000611d3a82611ce1565b9050919050565b82818337600083830152505050565bfe5b611d5b81611c97565b8114611d6657600080fd5b50565b611d7281611d01565b8114611d7d57600080fd5b5056fea26469706673582212208f1f2a26e3da4c3c8f4572bacccf1db37ee859e34f8d308edc4a6a9a86f0f5d064736f6c63430007030033",
  "linkReferences": {},
  "deployedLinkReferences": {}
}